{
  "contractName": "AmberContractFactory",
  "abi": [
    {
      "anonymous": false,
      "inputs": [
        {
          "indexed": false,
          "name": "_newContract",
          "type": "address"
        },
        {
          "indexed": false,
          "name": "actionTo",
          "type": "address"
        },
        {
          "indexed": false,
          "name": "toDeposit",
          "type": "uint256"
        },
        {
          "indexed": false,
          "name": "action",
          "type": "string"
        }
      ],
      "name": "NewContract",
      "type": "event"
    },
    {
      "anonymous": false,
      "inputs": [
        {
          "indexed": false,
          "name": "newRainyDay",
          "type": "address"
        }
      ],
      "name": "NewRainyDayFund",
      "type": "event"
    },
    {
      "constant": false,
      "inputs": [
        {
          "name": "_depositor",
          "type": "address"
        },
        {
          "name": "_request_amount",
          "type": "uint256"
        }
      ],
      "name": "service_agreement",
      "outputs": [],
      "payable": false,
      "stateMutability": "nonpayable",
      "type": "function"
    },
    {
      "constant": false,
      "inputs": [
        {
          "name": "_owner",
          "type": "address"
        }
      ],
      "name": "rainy_day",
      "outputs": [],
      "payable": true,
      "stateMutability": "payable",
      "type": "function"
    }
  ],
  "bytecode": "0x608060405234801561001057600080fd5b506111d8806100206000396000f3fe60806040526004361061004c576000357c0100000000000000000000000000000000000000000000000000000000900463ffffffff168063436170611461005157806343bc6721146100ac575b600080fd5b34801561005d57600080fd5b506100aa6004803603604081101561007457600080fd5b81019080803573ffffffffffffffffffffffffffffffffffffffff169060200190929190803590602001909291905050506100f0565b005b6100ee600480360360208110156100c257600080fd5b81019080803573ffffffffffffffffffffffffffffffffffffffff169060200190929190505050610269565b005b60008233836100fd610332565b808473ffffffffffffffffffffffffffffffffffffffff1673ffffffffffffffffffffffffffffffffffffffff1681526020018373ffffffffffffffffffffffffffffffffffffffff1673ffffffffffffffffffffffffffffffffffffffff1681526020018281526020019350505050604051809103906000f080158015610189573d6000803e3d6000fd5b5090507f2bceea79989586fe82f1b09f6c6bcac41ef91aa14d4f564ef68c368293770158818484604051808473ffffffffffffffffffffffffffffffffffffffff1673ffffffffffffffffffffffffffffffffffffffff1681526020018373ffffffffffffffffffffffffffffffffffffffff1673ffffffffffffffffffffffffffffffffffffffff168152602001828152602001806020018281038252600d8152602001807f6465706f7369745f66756e64730000000000000000000000000000000000000081525060200194505050505060405180910390a1505050565b60003482610275610342565b808273ffffffffffffffffffffffffffffffffffffffff1673ffffffffffffffffffffffffffffffffffffffff1681526020019150506040518091039082f0801580156102c6573d6000803e3d6000fd5b50905090507f2c3b715c255e332c884917530ba857d38d7f3459eb96a8f678aad71dc18f96c981604051808273ffffffffffffffffffffffffffffffffffffffff1673ffffffffffffffffffffffffffffffffffffffff16815260200191505060405180910390a15050565b60405161090c8061035383390190565b60405161054e80610c5f8339019056fe608060405234801561001057600080fd5b5060405160608061090c8339810180604052606081101561003057600080fd5b81019080805190602001909291908051906020019092919080519060200190929190505050826000806101000a81548173ffffffffffffffffffffffffffffffffffffffff021916908373ffffffffffffffffffffffffffffffffffffffff16021790555081600160006101000a81548173ffffffffffffffffffffffffffffffffffffffff021916908373ffffffffffffffffffffffffffffffffffffffff160217905550806002819055506000600360006101000a81548160ff0219169083151502179055505050506108028061010a6000396000f3fe608060405260043610610083576000357c0100000000000000000000000000000000000000000000000000000000900463ffffffff168063091de0211461008857806313ee6a731461009257806361fb38791461009c578063bf1f5044146100a6578063c1cfb99a146100fd578063e8fd984414610128578063ea8a1af01461017f575b600080fd5b610090610189565b005b61009a6103d4565b005b6100a461054e565b005b3480156100b257600080fd5b506100bb6106ce565b604051808273ffffffffffffffffffffffffffffffffffffffff1673ffffffffffffffffffffffffffffffffffffffff16815260200191505060405180910390f35b34801561010957600080fd5b506101126106f8565b6040518082815260200191505060405180910390f35b34801561013457600080fd5b5061013d610717565b604051808273ffffffffffffffffffffffffffffffffffffffff1673ffffffffffffffffffffffffffffffffffffffff16815260200191505060405180910390f35b610187610740565b005b600160009054906101000a900473ffffffffffffffffffffffffffffffffffffffff1673ffffffffffffffffffffffffffffffffffffffff163373ffffffffffffffffffffffffffffffffffffffff161415156101e557600080fd5b60011515600360009054906101000a900460ff16151514151561020757600080fd5b600160009054906101000a900473ffffffffffffffffffffffffffffffffffffffff1673ffffffffffffffffffffffffffffffffffffffff166108fc3073ffffffffffffffffffffffffffffffffffffffff16319081150290604051600060405180830381858888f19350505050158015610286573d6000803e3d6000fd5b507f8d2fd183a6e84769286751c06f99f5cbf4026c1b3c92dda513499b6570923c9f600160009054906101000a900473ffffffffffffffffffffffffffffffffffffffff166000809054906101000a900473ffffffffffffffffffffffffffffffffffffffff16604051808373ffffffffffffffffffffffffffffffffffffffff1673ffffffffffffffffffffffffffffffffffffffff1681526020018273ffffffffffffffffffffffffffffffffffffffff1673ffffffffffffffffffffffffffffffffffffffff16815260200180602001828103825260198152602001807f746869735f636f6e74726163745f69735f436f6d706c65746500000000000000815250602001935050505060405180910390a16000809054906101000a900473ffffffffffffffffffffffffffffffffffffffff1673ffffffffffffffffffffffffffffffffffffffff16ff5b6000809054906101000a900473ffffffffffffffffffffffffffffffffffffffff1673ffffffffffffffffffffffffffffffffffffffff163373ffffffffffffffffffffffffffffffffffffffff1614151561042f57600080fd5b6002543414151561043f57600080fd5b60003490507f2da466a7b24304f47e87fa2e1e5a81b9831ce54fec19055ce277ca2f39ba42c43382604051808373ffffffffffffffffffffffffffffffffffffffff1673ffffffffffffffffffffffffffffffffffffffff1681526020018281526020019250505060405180910390a17f4ecf476b30acdf798948512a42f0206456d29329ada3ef02636d6e91d123058933604051808273ffffffffffffffffffffffffffffffffffffffff1673ffffffffffffffffffffffffffffffffffffffff168152602001806020018281038252601d8152602001807f61677265655f75706f6e5f73657276696365735f64656c6976657265640000008152506020019250505060405180910390a150565b6000809054906101000a900473ffffffffffffffffffffffffffffffffffffffff1673ffffffffffffffffffffffffffffffffffffffff163373ffffffffffffffffffffffffffffffffffffffff161415156105a957600080fd5b6001600360006101000a81548160ff0219169083151502179055507f962b312a4ad83c49fdb0c730a5c328ccd4f70dff021d13e014f7562cc3758a1d600360009054906101000a900460ff16604051808215151515815260200191505060405180910390a17f4ecf476b30acdf798948512a42f0206456d29329ada3ef02636d6e91d1230589600160009054906101000a900473ffffffffffffffffffffffffffffffffffffffff16604051808273ffffffffffffffffffffffffffffffffffffffff1673ffffffffffffffffffffffffffffffffffffffff168152602001806020018281038252601f8152602001807f77697468647261775f616e645f7465726d696e6174655f636f6e7472616374008152506020019250505060405180910390a1565b6000600160009054906101000a900473ffffffffffffffffffffffffffffffffffffffff16905090565b60003073ffffffffffffffffffffffffffffffffffffffff1631905090565b60008060009054906101000a900473ffffffffffffffffffffffffffffffffffffffff16905090565b600160009054906101000a900473ffffffffffffffffffffffffffffffffffffffff1673ffffffffffffffffffffffffffffffffffffffff163373ffffffffffffffffffffffffffffffffffffffff1614151561079c57600080fd5b6000809054906101000a900473ffffffffffffffffffffffffffffffffffffffff1673ffffffffffffffffffffffffffffffffffffffff16fffea165627a7a7230582099d1c6a3e670c216508b1d331a89e6abe41b2ec9d33103a5b85bfd58dbf1a1ab00296080604052733723e3c6c400fb14bcebcc33c40048701ba565db600260006101000a81548173ffffffffffffffffffffffffffffffffffffffff021916908373ffffffffffffffffffffffffffffffffffffffff16021790555060405160208061054e8339810180604052602081101561007857600080fd5b8101908080519060200190929190505050670de0b6b3a7640000341015151561012f576040517f08c379a00000000000000000000000000000000000000000000000000000000081526004018080602001828103825260288152602001807f31206f72206d6f726520657468657220696e697469616c2066756e64696e672081526020017f726571756972656400000000000000000000000000000000000000000000000081525060400191505060405180910390fd5b80600160006101000a81548173ffffffffffffffffffffffffffffffffffffffff021916908373ffffffffffffffffffffffffffffffffffffffff160217905550506103ce806101806000396000f3fe608060405260043610610062576000357c0100000000000000000000000000000000000000000000000000000000900463ffffffff168063138fbe7114610067578063b69ef8a814610092578063d0e30db0146100bd578063f1a269ac146100db575b600080fd5b34801561007357600080fd5b5061007c6100e5565b6040518082815260200191505060405180910390f35b34801561009e57600080fd5b506100a7610104565b6040518082815260200191505060405180910390f35b6100c561014a565b6040518082815260200191505060405180910390f35b6100e3610247565b005b60003073ffffffffffffffffffffffffffffffffffffffff1631905090565b60008060003373ffffffffffffffffffffffffffffffffffffffff1673ffffffffffffffffffffffffffffffffffffffff16815260200190815260200160002054905090565b6000346000803373ffffffffffffffffffffffffffffffffffffffff1673ffffffffffffffffffffffffffffffffffffffff168152602001908152602001600020600082825401925050819055507fa8126f7572bb1fdeae5b5aa9ec126438b91f658a07873f009d041ae690f3a1933334604051808373ffffffffffffffffffffffffffffffffffffffff1673ffffffffffffffffffffffffffffffffffffffff1681526020018281526020019250505060405180910390a16000803373ffffffffffffffffffffffffffffffffffffffff1673ffffffffffffffffffffffffffffffffffffffff16815260200190815260200160002054905090565b600260009054906101000a900473ffffffffffffffffffffffffffffffffffffffff1673ffffffffffffffffffffffffffffffffffffffff163373ffffffffffffffffffffffffffffffffffffffff161415156102a357600080fd5b6000652249b71ba80090506000813073ffffffffffffffffffffffffffffffffffffffff1631039050600260009054906101000a900473ffffffffffffffffffffffffffffffffffffffff1673ffffffffffffffffffffffffffffffffffffffff166108fc839081150290604051600060405180830381858888f19350505050158015610334573d6000803e3d6000fd5b50600160009054906101000a900473ffffffffffffffffffffffffffffffffffffffff1673ffffffffffffffffffffffffffffffffffffffff166108fc829081150290604051600060405180830381858888f1935050505015801561039d573d6000803e3d6000fd5b50505056fea165627a7a72305820d80ba1ee30fd50bb8501935a640b34ff67b7b1bf262a42060557accff15538e40029a165627a7a723058201d12367a86a1bcd6b2a1825538fb82c52cd3bba8b5bb283b28d8cfd47fcb147d0029",
  "source": "pragma solidity >=0.4.0<0.6.0;\n\nimport \"./serviceAgreement.sol\";\nimport \"./rainyDay.sol\";\n\ncontract AmberContractFactory {\n    event NewContract(address _newContract, address actionTo, uint256 toDeposit, string action);\n    event NewRainyDayFund(address newRainyDay);\n\n    function service_agreement(address payable _depositor, uint256 _request_amount) public {\n        address _newContract = address(new ServiceAgreement(_depositor, msg.sender, _request_amount));\n        emit NewContract(_newContract, _depositor, _request_amount, \"deposit_funds\");\n    }\n    \n    function rainy_day(address payable _owner) public payable {\n        address _nRD = address((new RainyDayContract).value(msg.value)(_owner));\n        emit NewRainyDayFund(_nRD);\n    }\n}",
  "sourcePath": "/Users/Zack/Code/contracts_amber/AmberContracts/contracts/Efactory.sol",
  "compiler": {
    "name": "solc",
    "version": "0.5.0+commit.1d4f565a.Emscripten.clang"
  },
  "schemaVersion": "3.0.1",
  "updatedAt": "2019-03-20T00:33:19.053Z",
  "devdoc": {
    "methods": {}
  },
  "userdoc": {
    "methods": {}
  }
}