{
  "contractName": "AmberContractFactory",
  "abi": [
    {
      "anonymous": false,
      "inputs": [
        {
          "indexed": false,
          "name": "_newContract",
          "type": "address"
        },
        {
          "indexed": false,
          "name": "actionTo",
          "type": "address"
        },
        {
          "indexed": false,
          "name": "value",
          "type": "uint256"
        },
        {
          "indexed": false,
          "name": "action",
          "type": "string"
        }
      ],
      "name": "NewContract",
      "type": "event"
    },
    {
      "constant": false,
      "inputs": [
        {
          "name": "_depositor",
          "type": "address"
        },
        {
          "name": "_request_amount",
          "type": "uint256"
        }
      ],
      "name": "service_agreement",
      "outputs": [],
      "payable": false,
      "stateMutability": "nonpayable",
      "type": "function"
    },
    {
      "constant": false,
      "inputs": [
        {
          "name": "_owner",
          "type": "address"
        }
      ],
      "name": "rainy_day",
      "outputs": [],
      "payable": true,
      "stateMutability": "payable",
      "type": "function"
    }
  ],
  "bytecode": "0x608060405234801561001057600080fd5b50611253806100206000396000f3fe60806040526004361061004c576000357c0100000000000000000000000000000000000000000000000000000000900463ffffffff168063436170611461005157806343bc6721146100ac575b600080fd5b34801561005d57600080fd5b506100aa6004803603604081101561007457600080fd5b81019080803573ffffffffffffffffffffffffffffffffffffffff169060200190929190803590602001909291905050506100f0565b005b6100ee600480360360208110156100c257600080fd5b81019080803573ffffffffffffffffffffffffffffffffffffffff169060200190929190505050610269565b005b60008233836100fd6103a7565b808473ffffffffffffffffffffffffffffffffffffffff1673ffffffffffffffffffffffffffffffffffffffff1681526020018373ffffffffffffffffffffffffffffffffffffffff1673ffffffffffffffffffffffffffffffffffffffff1681526020018281526020019350505050604051809103906000f080158015610189573d6000803e3d6000fd5b5090507f2bceea79989586fe82f1b09f6c6bcac41ef91aa14d4f564ef68c368293770158818484604051808473ffffffffffffffffffffffffffffffffffffffff1673ffffffffffffffffffffffffffffffffffffffff1681526020018373ffffffffffffffffffffffffffffffffffffffff1673ffffffffffffffffffffffffffffffffffffffff168152602001828152602001806020018281038252600d8152602001807f6465706f7369745f66756e64730000000000000000000000000000000000000081525060200194505050505060405180910390a1505050565b600034826102756103b7565b808273ffffffffffffffffffffffffffffffffffffffff1673ffffffffffffffffffffffffffffffffffffffff1681526020019150506040518091039082f0801580156102c6573d6000803e3d6000fd5b50905090507f2bceea79989586fe82f1b09f6c6bcac41ef91aa14d4f564ef68c368293770158818334604051808473ffffffffffffffffffffffffffffffffffffffff1673ffffffffffffffffffffffffffffffffffffffff1681526020018373ffffffffffffffffffffffffffffffffffffffff1673ffffffffffffffffffffffffffffffffffffffff168152602001828152602001806020018281038252600d8152602001807f776169745f666f725f7261696e0000000000000000000000000000000000000081525060200194505050505060405180910390a15050565b604051610879806103c883390190565b6040516105e780610c418339019056fe608060405234801561001057600080fd5b506040516060806108798339810180604052606081101561003057600080fd5b81019080805190602001909291908051906020019092919080519060200190929190505050826000806101000a81548173ffffffffffffffffffffffffffffffffffffffff021916908373ffffffffffffffffffffffffffffffffffffffff16021790555081600160006101000a81548173ffffffffffffffffffffffffffffffffffffffff021916908373ffffffffffffffffffffffffffffffffffffffff160217905550806002819055506000600360006101000a81548160ff02191690831515021790555050505061076f8061010a6000396000f3fe608060405260043610610083576000357c0100000000000000000000000000000000000000000000000000000000900463ffffffff168063091de0211461008857806313ee6a731461009257806361fb38791461009c578063bf1f5044146100a6578063c1cfb99a146100fd578063e8fd984414610128578063ea8a1af01461017f575b600080fd5b610090610189565b005b61009a6103d0565b005b6100a46104f4565b005b3480156100b257600080fd5b506100bb61063b565b604051808273ffffffffffffffffffffffffffffffffffffffff1673ffffffffffffffffffffffffffffffffffffffff16815260200191505060405180910390f35b34801561010957600080fd5b50610112610665565b6040518082815260200191505060405180910390f35b34801561013457600080fd5b5061013d610684565b604051808273ffffffffffffffffffffffffffffffffffffffff1673ffffffffffffffffffffffffffffffffffffffff16815260200191505060405180910390f35b6101876106ad565b005b600160009054906101000a900473ffffffffffffffffffffffffffffffffffffffff1673ffffffffffffffffffffffffffffffffffffffff163373ffffffffffffffffffffffffffffffffffffffff161415156101e557600080fd5b60011515600360009054906101000a900460ff16151514151561020757600080fd5b600160009054906101000a900473ffffffffffffffffffffffffffffffffffffffff1673ffffffffffffffffffffffffffffffffffffffff166108fc3073ffffffffffffffffffffffffffffffffffffffff16319081150290604051600060405180830381858888f19350505050158015610286573d6000803e3d6000fd5b507f1a2a3ad321367b825e3af0fd04d07c70daea7be69967faa89ba0262e6fc3ad206000809054906101000a900473ffffffffffffffffffffffffffffffffffffffff163073ffffffffffffffffffffffffffffffffffffffff16316000604051808473ffffffffffffffffffffffffffffffffffffffff1673ffffffffffffffffffffffffffffffffffffffff1681526020018381526020018060200183151515158152602001828103825260258152602001807f73657276696365735f72656e64657265645f616e645f636f6e74726163745f6381526020017f6c6f73656400000000000000000000000000000000000000000000000000000081525060400194505050505060405180910390a16000809054906101000a900473ffffffffffffffffffffffffffffffffffffffff1673ffffffffffffffffffffffffffffffffffffffff16ff5b6000809054906101000a900473ffffffffffffffffffffffffffffffffffffffff1673ffffffffffffffffffffffffffffffffffffffff163373ffffffffffffffffffffffffffffffffffffffff1614151561042b57600080fd5b6002543414151561043b57600080fd5b60003490507f1a2a3ad321367b825e3af0fd04d07c70daea7be69967faa89ba0262e6fc3ad2033826001604051808473ffffffffffffffffffffffffffffffffffffffff1673ffffffffffffffffffffffffffffffffffffffff16815260200183815260200180602001831515151581526020018281038252601d8152602001807f61677265655f75706f6e5f73657276696365735f64656c69766572656400000081525060200194505050505060405180910390a150565b6000809054906101000a900473ffffffffffffffffffffffffffffffffffffffff1673ffffffffffffffffffffffffffffffffffffffff163373ffffffffffffffffffffffffffffffffffffffff1614151561054f57600080fd5b7f1a2a3ad321367b825e3af0fd04d07c70daea7be69967faa89ba0262e6fc3ad20600160009054906101000a900473ffffffffffffffffffffffffffffffffffffffff163073ffffffffffffffffffffffffffffffffffffffff16316001604051808473ffffffffffffffffffffffffffffffffffffffff1673ffffffffffffffffffffffffffffffffffffffff16815260200183815260200180602001831515151581526020018281038252601f8152602001807f77697468647261775f616e645f7465726d696e6174655f636f6e74726163740081525060200194505050505060405180910390a1565b6000600160009054906101000a900473ffffffffffffffffffffffffffffffffffffffff16905090565b60003073ffffffffffffffffffffffffffffffffffffffff1631905090565b60008060009054906101000a900473ffffffffffffffffffffffffffffffffffffffff16905090565b600160009054906101000a900473ffffffffffffffffffffffffffffffffffffffff1673ffffffffffffffffffffffffffffffffffffffff163373ffffffffffffffffffffffffffffffffffffffff1614151561070957600080fd5b6000809054906101000a900473ffffffffffffffffffffffffffffffffffffffff1673ffffffffffffffffffffffffffffffffffffffff16fffea165627a7a72305820e463251edc08b5bced9c7af21213de734c662644ffb1d45a12695f389fa14e2e00296080604052733723e3c6c400fb14bcebcc33c40048701ba565db600260006101000a81548173ffffffffffffffffffffffffffffffffffffffff021916908373ffffffffffffffffffffffffffffffffffffffff1602179055506040516020806105e78339810180604052602081101561007857600080fd5b81019080805190602001909291905050506706f05b59d3b2000034101515156100a057600080fd5b80600160006101000a81548173ffffffffffffffffffffffffffffffffffffffff021916908373ffffffffffffffffffffffffffffffffffffffff160217905550506104f6806100f16000396000f3fe608060405260043610610062576000357c0100000000000000000000000000000000000000000000000000000000900463ffffffff168063138fbe71146100675780637ae33a0c14610092578063b69ef8a81461009c578063d0e30db0146100c7575b600080fd5b34801561007357600080fd5b5061007c6100e5565b6040518082815260200191505060405180910390f35b61009a610104565b005b3480156100a857600080fd5b506100b16102f3565b6040518082815260200191505060405180910390f35b6100cf610339565b6040518082815260200191505060405180910390f35b60003073ffffffffffffffffffffffffffffffffffffffff1631905090565b600260009054906101000a900473ffffffffffffffffffffffffffffffffffffffff1673ffffffffffffffffffffffffffffffffffffffff163373ffffffffffffffffffffffffffffffffffffffff1614151561016057600080fd5b6000652249b71ba80090506000813073ffffffffffffffffffffffffffffffffffffffff1631039050600260009054906101000a900473ffffffffffffffffffffffffffffffffffffffff1673ffffffffffffffffffffffffffffffffffffffff166108fc839081150290604051600060405180830381858888f193505050501580156101f1573d6000803e3d6000fd5b50600160009054906101000a900473ffffffffffffffffffffffffffffffffffffffff1673ffffffffffffffffffffffffffffffffffffffff166108fc829081150290604051600060405180830381858888f1935050505015801561025a573d6000803e3d6000fd5b507fbdde5327b72baa3238d382b14c279533a4644bf2dfa7b2ebc00e47370093ddb460003073ffffffffffffffffffffffffffffffffffffffff16316040518083151515158152602001806020018381526020018281038252601a8152602001807f5468697320636f6e747261637420697320636f6d706c65746521000000000000815250602001935050505060405180910390a15050565b60008060003373ffffffffffffffffffffffffffffffffffffffff1673ffffffffffffffffffffffffffffffffffffffff16815260200190815260200160002054905090565b6000346000803373ffffffffffffffffffffffffffffffffffffffff1673ffffffffffffffffffffffffffffffffffffffff168152602001908152602001600020600082825401925050819055507f2da466a7b24304f47e87fa2e1e5a81b9831ce54fec19055ce277ca2f39ba42c43334604051808373ffffffffffffffffffffffffffffffffffffffff1673ffffffffffffffffffffffffffffffffffffffff1681526020018281526020019250505060405180910390a17fbdde5327b72baa3238d382b14c279533a4644bf2dfa7b2ebc00e47370093ddb460013073ffffffffffffffffffffffffffffffffffffffff16316040518083151515158152602001806020018381526020018281038252600c8152602001807f69737375655f726566756e640000000000000000000000000000000000000000815250602001935050505060405180910390a16000803373ffffffffffffffffffffffffffffffffffffffff1673ffffffffffffffffffffffffffffffffffffffff1681526020019081526020016000205490509056fea165627a7a7230582037937de66694b7d442cebb47c9ac0a6dbb5fed8baa3b3ecad60f6146c56119190029a165627a7a7230582089df0d89148117ee03dee7ad79634e583db1dd2deb2c8b96ac7c89e83821c1f60029",
  "source": "pragma solidity >=0.4.0<0.6.0;\n\nimport \"./serviceAgreement.sol\";\nimport \"./rainyDay.sol\";\n\ncontract AmberContractFactory {\n    event NewContract(address _newContract, address actionTo, uint256 value, string action);\n\n    function service_agreement(address payable _depositor, uint256 _request_amount) public {\n        address _newContract = address(new ServiceAgreement(_depositor, msg.sender, _request_amount));\n        emit NewContract(_newContract, _depositor, _request_amount, \"deposit_funds\");\n    }\n    \n    function rainy_day(address payable _owner) public payable {\n        address _newRainyDay = address((new RainyDayContract).value(msg.value)(_owner));\n        emit NewContract(_newRainyDay, _owner, msg.value, \"wait_for_rain\");\n    }\n}",
  "sourcePath": "/Users/Zack/Code/contracts_amber/AmberContracts/contracts/Efactory.sol",
  "compiler": {
    "name": "solc",
    "version": "0.5.0+commit.1d4f565a.Emscripten.clang"
  },
  "schemaVersion": "3.0.1",
  "updatedAt": "2019-03-20T02:08:40.297Z",
  "devdoc": {
    "methods": {}
  },
  "userdoc": {
    "methods": {}
  }
}