{
  "contractName": "RainyDayContract",
  "abi": [
    {
      "inputs": [
        {
          "name": "_owner",
          "type": "address"
        }
      ],
      "payable": true,
      "stateMutability": "payable",
      "type": "constructor"
    },
    {
      "anonymous": false,
      "inputs": [
        {
          "indexed": false,
          "name": "action_to",
          "type": "address"
        },
        {
          "indexed": false,
          "name": "value",
          "type": "uint256"
        },
        {
          "indexed": false,
          "name": "action",
          "type": "string"
        },
        {
          "indexed": false,
          "name": "active",
          "type": "bool"
        }
      ],
      "name": "next_action",
      "type": "event"
    },
    {
      "constant": false,
      "inputs": [],
      "name": "deposit",
      "outputs": [
        {
          "name": "",
          "type": "uint256"
        }
      ],
      "payable": true,
      "stateMutability": "payable",
      "type": "function"
    },
    {
      "constant": true,
      "inputs": [],
      "name": "get_contract_balance",
      "outputs": [
        {
          "name": "",
          "type": "uint256"
        }
      ],
      "payable": false,
      "stateMutability": "view",
      "type": "function"
    },
    {
      "constant": false,
      "inputs": [],
      "name": "issue_refund",
      "outputs": [],
      "payable": true,
      "stateMutability": "payable",
      "type": "function"
    }
  ],
  "bytecode": "0x6080604052733723e3c6c400fb14bcebcc33c40048701ba565db600260006101000a81548173ffffffffffffffffffffffffffffffffffffffff021916908373ffffffffffffffffffffffffffffffffffffffff1602179055506040516020806105e38339810180604052602081101561007857600080fd5b81019080805190602001909291905050506709935f581f05000034101515156100a057600080fd5b80600160006101000a81548173ffffffffffffffffffffffffffffffffffffffff021916908373ffffffffffffffffffffffffffffffffffffffff160217905550506104f2806100f16000396000f3fe608060405260043610610057576000357c0100000000000000000000000000000000000000000000000000000000900463ffffffff1680637ae33a0c1461005c578063d0e30db014610066578063f0bc153a14610084575b600080fd5b6100646100af565b005b61006e61032b565b6040518082815260200191505060405180910390f35b34801561009057600080fd5b506100996104a7565b6040518082815260200191505060405180910390f35b600260009054906101000a900473ffffffffffffffffffffffffffffffffffffffff1673ffffffffffffffffffffffffffffffffffffffff163373ffffffffffffffffffffffffffffffffffffffff1614151561010b57600080fd5b6000652249b71ba80090506000813073ffffffffffffffffffffffffffffffffffffffff1631039050600260009054906101000a900473ffffffffffffffffffffffffffffffffffffffff1673ffffffffffffffffffffffffffffffffffffffff166108fc839081150290604051600060405180830381858888f1935050505015801561019c573d6000803e3d6000fd5b50600160009054906101000a900473ffffffffffffffffffffffffffffffffffffffff1673ffffffffffffffffffffffffffffffffffffffff166108fc829081150290604051600060405180830381858888f19350505050158015610205573d6000803e3d6000fd5b507fc667a4edcf36fd2c0c74951ed642fc53fd0d1d3d45cd34d5a7a5ea3747313691600160009054906101000a900473ffffffffffffffffffffffffffffffffffffffff163073ffffffffffffffffffffffffffffffffffffffff16316000604051808473ffffffffffffffffffffffffffffffffffffffff1673ffffffffffffffffffffffffffffffffffffffff1681526020018381526020018060200183151515158152602001828103825260198152602001807f746869735f636f6e74726163745f69735f636f6d706c6574650000000000000081525060200194505050505060405180910390a1600160009054906101000a900473ffffffffffffffffffffffffffffffffffffffff1673ffffffffffffffffffffffffffffffffffffffff16ff5b6000346000803373ffffffffffffffffffffffffffffffffffffffff1673ffffffffffffffffffffffffffffffffffffffff168152602001908152602001600020600082825401925050819055507fc667a4edcf36fd2c0c74951ed642fc53fd0d1d3d45cd34d5a7a5ea3747313691600160009054906101000a900473ffffffffffffffffffffffffffffffffffffffff163073ffffffffffffffffffffffffffffffffffffffff16316001604051808473ffffffffffffffffffffffffffffffffffffffff1673ffffffffffffffffffffffffffffffffffffffff1681526020018381526020018060200183151515158152602001828103825260078152602001807f6465706f7369740000000000000000000000000000000000000000000000000081525060200194505050505060405180910390a16000803373ffffffffffffffffffffffffffffffffffffffff1673ffffffffffffffffffffffffffffffffffffffff16815260200190815260200160002054905090565b60003073ffffffffffffffffffffffffffffffffffffffff163190509056fea165627a7a7230582098afe68ba0b55e7597c58941a437cd4cb5fe4eb63bcce9fe99f4f02d493da1710029",
  "source": "pragma solidity >=0.4.21 <0.6.0;\n\ncontract RainyDayContract {\n\n    mapping (address => uint) private balances;\n    address payable owner;\n    address payable oracleAddress = 0x3723e3c6C400fb14bcEBCC33C40048701ba565Db;\n\n    event next_action(address action_to, uint256 value, string action, bool active);\n\n    constructor(address payable _owner) public payable {\n        require(msg.value >= .69 ether);\n        owner = _owner;\n    }\n\n    function deposit() public payable returns (uint) {\n        balances[msg.sender] += msg.value;\n        emit next_action(owner, address(this).balance, \"deposit\", true);\n        return balances[msg.sender];\n    }\n    \n    function get_contract_balance() public view returns (uint) {\n        return address(this).balance;\n    }\n\n    function issue_refund() public payable {\n        require(msg.sender == oracleAddress);\n        uint refundToOracle = (0.000037700 ether);\n        uint refundToOwner = (address(this).balance) - refundToOracle;\n        oracleAddress.transfer(refundToOracle);\n        owner.transfer(refundToOwner);\t\n        emit next_action(owner, address(this).balance, \"this_contract_is_complete\", false);\n\t\t\t\tselfdestruct(owner);\n    }\n}",
  "sourcePath": "/Users/Zack/Code/contracts_amber/AmberContracts/contracts/rainyDay.sol",
  "compiler": {
    "name": "solc",
    "version": "0.5.0+commit.1d4f565a.Emscripten.clang"
  },
  "schemaVersion": "3.0.1",
  "updatedAt": "2019-03-22T02:03:09.137Z",
  "devdoc": {
    "methods": {}
  },
  "userdoc": {
    "methods": {}
  }
}