{
  "contractName": "RainyDayContract",
  "abi": [
    {
      "inputs": [
        {
          "name": "_owner",
          "type": "address"
        }
      ],
      "payable": true,
      "stateMutability": "payable",
      "type": "constructor"
    },
    {
      "anonymous": false,
      "inputs": [
        {
          "indexed": false,
          "name": "accountAddress",
          "type": "address"
        },
        {
          "indexed": false,
          "name": "amount",
          "type": "uint256"
        }
      ],
      "name": "LogDepositMade",
      "type": "event"
    },
    {
      "constant": false,
      "inputs": [],
      "name": "deposit",
      "outputs": [
        {
          "name": "",
          "type": "uint256"
        }
      ],
      "payable": true,
      "stateMutability": "payable",
      "type": "function"
    },
    {
      "constant": true,
      "inputs": [],
      "name": "balance",
      "outputs": [
        {
          "name": "",
          "type": "uint256"
        }
      ],
      "payable": false,
      "stateMutability": "view",
      "type": "function"
    },
    {
      "constant": true,
      "inputs": [],
      "name": "depositsBalance",
      "outputs": [
        {
          "name": "",
          "type": "uint256"
        }
      ],
      "payable": false,
      "stateMutability": "view",
      "type": "function"
    },
    {
      "constant": false,
      "inputs": [],
      "name": "issueRefund",
      "outputs": [],
      "payable": true,
      "stateMutability": "payable",
      "type": "function"
    }
  ],
  "bytecode": "0x6080604052733723e3c6c400fb14bcebcc33c40048701ba565db600260006101000a81548173ffffffffffffffffffffffffffffffffffffffff021916908373ffffffffffffffffffffffffffffffffffffffff16021790555060405160208061054e8339810180604052602081101561007857600080fd5b8101908080519060200190929190505050670de0b6b3a7640000341015151561012f576040517f08c379a00000000000000000000000000000000000000000000000000000000081526004018080602001828103825260288152602001807f31206f72206d6f726520657468657220696e697469616c2066756e64696e672081526020017f726571756972656400000000000000000000000000000000000000000000000081525060400191505060405180910390fd5b80600160006101000a81548173ffffffffffffffffffffffffffffffffffffffff021916908373ffffffffffffffffffffffffffffffffffffffff160217905550506103ce806101806000396000f3fe608060405260043610610062576000357c0100000000000000000000000000000000000000000000000000000000900463ffffffff168063138fbe7114610067578063b69ef8a814610092578063d0e30db0146100bd578063f1a269ac146100db575b600080fd5b34801561007357600080fd5b5061007c6100e5565b6040518082815260200191505060405180910390f35b34801561009e57600080fd5b506100a7610104565b6040518082815260200191505060405180910390f35b6100c561014a565b6040518082815260200191505060405180910390f35b6100e3610247565b005b60003073ffffffffffffffffffffffffffffffffffffffff1631905090565b60008060003373ffffffffffffffffffffffffffffffffffffffff1673ffffffffffffffffffffffffffffffffffffffff16815260200190815260200160002054905090565b6000346000803373ffffffffffffffffffffffffffffffffffffffff1673ffffffffffffffffffffffffffffffffffffffff168152602001908152602001600020600082825401925050819055507fa8126f7572bb1fdeae5b5aa9ec126438b91f658a07873f009d041ae690f3a1933334604051808373ffffffffffffffffffffffffffffffffffffffff1673ffffffffffffffffffffffffffffffffffffffff1681526020018281526020019250505060405180910390a16000803373ffffffffffffffffffffffffffffffffffffffff1673ffffffffffffffffffffffffffffffffffffffff16815260200190815260200160002054905090565b600260009054906101000a900473ffffffffffffffffffffffffffffffffffffffff1673ffffffffffffffffffffffffffffffffffffffff163373ffffffffffffffffffffffffffffffffffffffff161415156102a357600080fd5b6000652249b71ba80090506000813073ffffffffffffffffffffffffffffffffffffffff1631039050600260009054906101000a900473ffffffffffffffffffffffffffffffffffffffff1673ffffffffffffffffffffffffffffffffffffffff166108fc839081150290604051600060405180830381858888f19350505050158015610334573d6000803e3d6000fd5b50600160009054906101000a900473ffffffffffffffffffffffffffffffffffffffff1673ffffffffffffffffffffffffffffffffffffffff166108fc829081150290604051600060405180830381858888f1935050505015801561039d573d6000803e3d6000fd5b50505056fea165627a7a72305820d80ba1ee30fd50bb8501935a640b34ff67b7b1bf262a42060557accff15538e40029",
  "source": "pragma solidity >=0.4.21 <0.6.0;\n\ncontract RainyDayContract {\n\n    mapping (address => uint256) private balances;\n    address payable owner;\n    address payable oracleAddress = 0x3723e3c6C400fb14bcEBCC33C40048701ba565Db;\n\n    event LogDepositMade(address accountAddress, uint256 amount);\n\n    constructor(address payable _owner) public payable {\n        require(msg.value >= 1 ether, \"1 or more ether initial funding required\");\n        owner = _owner;\n    }\n\n    function deposit() public payable returns (uint256) {\n        balances[msg.sender] += msg.value;\n        emit LogDepositMade(msg.sender, msg.value);\n        return balances[msg.sender];\n    }\n\n    function balance() public view returns (uint256) {\n        return balances[msg.sender];\n    }\n\n    function depositsBalance() public view returns (uint256) {\n        return address(this).balance;\n    }\n\n    function issueRefund() public payable {\n\n        require(msg.sender == oracleAddress);\n\n        uint256 refundToOracle = (0.000037700 ether);\n\n        uint256 refundToOwner = (address(this).balance) - refundToOracle;\n\n        oracleAddress.transfer(refundToOracle);\n\n        owner.transfer(refundToOwner);\n\n    }\n\n}",
  "sourcePath": "/Users/Zack/Code/contracts_amber/AmberContracts/contracts/rainyDay.sol",
  "compiler": {
    "name": "solc",
    "version": "0.5.0+commit.1d4f565a.Emscripten.clang"
  },
  "schemaVersion": "3.0.1",
  "updatedAt": "2019-03-20T00:33:19.057Z",
  "devdoc": {
    "methods": {}
  },
  "userdoc": {
    "methods": {}
  }
}