{
  "contractName": "RainyDayContract",
  "abi": [
    {
      "inputs": [
        {
          "name": "_owner",
          "type": "address"
        }
      ],
      "payable": true,
      "stateMutability": "payable",
      "type": "constructor"
    },
    {
      "anonymous": false,
      "inputs": [
        {
          "indexed": false,
          "name": "action_to",
          "type": "address"
        },
        {
          "indexed": false,
          "name": "value",
          "type": "uint256"
        },
        {
          "indexed": false,
          "name": "action",
          "type": "string"
        },
        {
          "indexed": false,
          "name": "active",
          "type": "bool"
        }
      ],
      "name": "next_action",
      "type": "event"
    },
    {
      "constant": false,
      "inputs": [],
      "name": "deposit",
      "outputs": [
        {
          "name": "",
          "type": "uint256"
        }
      ],
      "payable": true,
      "stateMutability": "payable",
      "type": "function"
    },
    {
      "constant": true,
      "inputs": [],
      "name": "get_contract_balance",
      "outputs": [
        {
          "name": "",
          "type": "uint256"
        }
      ],
      "payable": false,
      "stateMutability": "view",
      "type": "function"
    },
    {
      "constant": false,
      "inputs": [],
      "name": "issue_refund",
      "outputs": [],
      "payable": true,
      "stateMutability": "payable",
      "type": "function"
    },
    {
      "constant": false,
      "inputs": [],
      "name": "cancel",
      "outputs": [],
      "payable": true,
      "stateMutability": "payable",
      "type": "function"
    }
  ],
  "bytecode": "0x6080604052733723e3c6c400fb14bcebcc33c40048701ba565db600260006101000a81548173ffffffffffffffffffffffffffffffffffffffff021916908373ffffffffffffffffffffffffffffffffffffffff16021790555060405160208061068f8339810180604052602081101561007857600080fd5b81019080805190602001909291905050506709935f581f05000034101515156100a057600080fd5b80600160006101000a81548173ffffffffffffffffffffffffffffffffffffffff021916908373ffffffffffffffffffffffffffffffffffffffff1602179055505061059e806100f16000396000f3fe608060405260043610610062576000357c0100000000000000000000000000000000000000000000000000000000900463ffffffff1680637ae33a0c14610067578063d0e30db014610071578063ea8a1af01461008f578063f0bc153a14610099575b600080fd5b61006f6100c4565b005b610079610340565b6040518082815260200191505060405180910390f35b6100976104bc565b005b3480156100a557600080fd5b506100ae610553565b6040518082815260200191505060405180910390f35b600260009054906101000a900473ffffffffffffffffffffffffffffffffffffffff1673ffffffffffffffffffffffffffffffffffffffff163373ffffffffffffffffffffffffffffffffffffffff1614151561012057600080fd5b6000652249b71ba80090506000813073ffffffffffffffffffffffffffffffffffffffff1631039050600260009054906101000a900473ffffffffffffffffffffffffffffffffffffffff1673ffffffffffffffffffffffffffffffffffffffff166108fc839081150290604051600060405180830381858888f193505050501580156101b1573d6000803e3d6000fd5b50600160009054906101000a900473ffffffffffffffffffffffffffffffffffffffff1673ffffffffffffffffffffffffffffffffffffffff166108fc829081150290604051600060405180830381858888f1935050505015801561021a573d6000803e3d6000fd5b507fc667a4edcf36fd2c0c74951ed642fc53fd0d1d3d45cd34d5a7a5ea3747313691600160009054906101000a900473ffffffffffffffffffffffffffffffffffffffff163073ffffffffffffffffffffffffffffffffffffffff16316000604051808473ffffffffffffffffffffffffffffffffffffffff1673ffffffffffffffffffffffffffffffffffffffff1681526020018381526020018060200183151515158152602001828103825260198152602001807f746869735f636f6e74726163745f69735f636f6d706c6574650000000000000081525060200194505050505060405180910390a1600160009054906101000a900473ffffffffffffffffffffffffffffffffffffffff1673ffffffffffffffffffffffffffffffffffffffff16ff5b6000346000803373ffffffffffffffffffffffffffffffffffffffff1673ffffffffffffffffffffffffffffffffffffffff168152602001908152602001600020600082825401925050819055507fc667a4edcf36fd2c0c74951ed642fc53fd0d1d3d45cd34d5a7a5ea3747313691600160009054906101000a900473ffffffffffffffffffffffffffffffffffffffff163073ffffffffffffffffffffffffffffffffffffffff16316001604051808473ffffffffffffffffffffffffffffffffffffffff1673ffffffffffffffffffffffffffffffffffffffff1681526020018381526020018060200183151515158152602001828103825260078152602001807f6465706f7369740000000000000000000000000000000000000000000000000081525060200194505050505060405180910390a16000803373ffffffffffffffffffffffffffffffffffffffff1673ffffffffffffffffffffffffffffffffffffffff16815260200190815260200160002054905090565b600160009054906101000a900473ffffffffffffffffffffffffffffffffffffffff1673ffffffffffffffffffffffffffffffffffffffff163373ffffffffffffffffffffffffffffffffffffffff1614151561051857600080fd5b600160009054906101000a900473ffffffffffffffffffffffffffffffffffffffff1673ffffffffffffffffffffffffffffffffffffffff16ff5b60003073ffffffffffffffffffffffffffffffffffffffff163190509056fea165627a7a723058207fe16f7420d8902d4a6898017300e52440da3445f3c7c2a9f58697661fc559e60029",
  "source": "pragma solidity >=0.4.21 <0.6.0;\n\ncontract RainyDayContract {\n\n    mapping (address => uint) private balances;\n    address payable owner;\n    address payable oracleAddress = 0x3723e3c6C400fb14bcEBCC33C40048701ba565Db;\n\t\t\n    event next_action(address action_to, uint256 value, string action, bool active);\n\n    constructor(address payable _owner) public payable {\n        require(msg.value >= .69 ether);\n        owner = _owner;\n    }\n\n\t\tmodifier isOwner(){\n        require(msg.sender == owner);\n        _;\n    }\n\n    function deposit() public payable returns (uint) {\n        balances[msg.sender] += msg.value;\n        emit next_action(owner, address(this).balance, \"deposit\", true);\n        return balances[msg.sender];\n    }\n    \n    function get_contract_balance() public view returns (uint) {\n        return address(this).balance;\n    }\n\n    function issue_refund() public payable {\n        require(msg.sender == oracleAddress);\n        uint refundToOracle = (0.000037700 ether);\n        uint refundToOwner = (address(this).balance) - refundToOracle;\n        oracleAddress.transfer(refundToOracle);\n        owner.transfer(refundToOwner);\t\n        emit next_action(owner, address(this).balance, \"this_contract_is_complete\", false);\n\t\t\t\tselfdestruct(owner);\n    }\n\n\t\tfunction cancel() public payable isOwner{\n        selfdestruct(owner);\n    }\n}",
  "sourcePath": "/Users/Zack/Code/contracts_amber/AmberContracts/contracts/rainyDay.sol",
  "compiler": {
    "name": "solc",
    "version": "0.5.0+commit.1d4f565a.Emscripten.clang"
  },
  "schemaVersion": "3.0.1",
  "updatedAt": "2019-03-24T17:56:51.014Z",
  "devdoc": {
    "methods": {}
  },
  "userdoc": {
    "methods": {}
  }
}