{
  "contractName": "RainyDayContract",
  "abi": [
    {
      "inputs": [
        {
          "name": "_owner",
          "type": "address"
        }
      ],
      "payable": true,
      "stateMutability": "payable",
      "type": "constructor"
    },
    {
      "anonymous": false,
      "inputs": [
        {
          "indexed": false,
          "name": "accountAddress",
          "type": "address"
        },
        {
          "indexed": false,
          "name": "amount",
          "type": "uint256"
        }
      ],
      "name": "Deposited",
      "type": "event"
    },
    {
      "anonymous": false,
      "inputs": [
        {
          "indexed": false,
          "name": "status",
          "type": "bool"
        },
        {
          "indexed": false,
          "name": "action",
          "type": "string"
        },
        {
          "indexed": false,
          "name": "value",
          "type": "uint256"
        }
      ],
      "name": "ActionStatus",
      "type": "event"
    },
    {
      "constant": false,
      "inputs": [],
      "name": "deposit",
      "outputs": [
        {
          "name": "",
          "type": "uint256"
        }
      ],
      "payable": true,
      "stateMutability": "payable",
      "type": "function"
    },
    {
      "constant": true,
      "inputs": [],
      "name": "balance",
      "outputs": [
        {
          "name": "",
          "type": "uint256"
        }
      ],
      "payable": false,
      "stateMutability": "view",
      "type": "function"
    },
    {
      "constant": true,
      "inputs": [],
      "name": "depositsBalance",
      "outputs": [
        {
          "name": "",
          "type": "uint256"
        }
      ],
      "payable": false,
      "stateMutability": "view",
      "type": "function"
    },
    {
      "constant": false,
      "inputs": [],
      "name": "issue_refund",
      "outputs": [],
      "payable": true,
      "stateMutability": "payable",
      "type": "function"
    }
  ],
  "bytecode": "0x6080604052733723e3c6c400fb14bcebcc33c40048701ba565db600260006101000a81548173ffffffffffffffffffffffffffffffffffffffff021916908373ffffffffffffffffffffffffffffffffffffffff1602179055506040516020806105e78339810180604052602081101561007857600080fd5b81019080805190602001909291905050506706f05b59d3b2000034101515156100a057600080fd5b80600160006101000a81548173ffffffffffffffffffffffffffffffffffffffff021916908373ffffffffffffffffffffffffffffffffffffffff160217905550506104f6806100f16000396000f3fe608060405260043610610062576000357c0100000000000000000000000000000000000000000000000000000000900463ffffffff168063138fbe71146100675780637ae33a0c14610092578063b69ef8a81461009c578063d0e30db0146100c7575b600080fd5b34801561007357600080fd5b5061007c6100e5565b6040518082815260200191505060405180910390f35b61009a610104565b005b3480156100a857600080fd5b506100b16102f3565b6040518082815260200191505060405180910390f35b6100cf610339565b6040518082815260200191505060405180910390f35b60003073ffffffffffffffffffffffffffffffffffffffff1631905090565b600260009054906101000a900473ffffffffffffffffffffffffffffffffffffffff1673ffffffffffffffffffffffffffffffffffffffff163373ffffffffffffffffffffffffffffffffffffffff1614151561016057600080fd5b6000652249b71ba80090506000813073ffffffffffffffffffffffffffffffffffffffff1631039050600260009054906101000a900473ffffffffffffffffffffffffffffffffffffffff1673ffffffffffffffffffffffffffffffffffffffff166108fc839081150290604051600060405180830381858888f193505050501580156101f1573d6000803e3d6000fd5b50600160009054906101000a900473ffffffffffffffffffffffffffffffffffffffff1673ffffffffffffffffffffffffffffffffffffffff166108fc829081150290604051600060405180830381858888f1935050505015801561025a573d6000803e3d6000fd5b507fbdde5327b72baa3238d382b14c279533a4644bf2dfa7b2ebc00e47370093ddb460003073ffffffffffffffffffffffffffffffffffffffff16316040518083151515158152602001806020018381526020018281038252601a8152602001807f5468697320636f6e747261637420697320636f6d706c65746521000000000000815250602001935050505060405180910390a15050565b60008060003373ffffffffffffffffffffffffffffffffffffffff1673ffffffffffffffffffffffffffffffffffffffff16815260200190815260200160002054905090565b6000346000803373ffffffffffffffffffffffffffffffffffffffff1673ffffffffffffffffffffffffffffffffffffffff168152602001908152602001600020600082825401925050819055507f2da466a7b24304f47e87fa2e1e5a81b9831ce54fec19055ce277ca2f39ba42c43334604051808373ffffffffffffffffffffffffffffffffffffffff1673ffffffffffffffffffffffffffffffffffffffff1681526020018281526020019250505060405180910390a17fbdde5327b72baa3238d382b14c279533a4644bf2dfa7b2ebc00e47370093ddb460013073ffffffffffffffffffffffffffffffffffffffff16316040518083151515158152602001806020018381526020018281038252600c8152602001807f69737375655f726566756e640000000000000000000000000000000000000000815250602001935050505060405180910390a16000803373ffffffffffffffffffffffffffffffffffffffff1673ffffffffffffffffffffffffffffffffffffffff1681526020019081526020016000205490509056fea165627a7a7230582037937de66694b7d442cebb47c9ac0a6dbb5fed8baa3b3ecad60f6146c56119190029",
  "source": "pragma solidity >=0.4.21 <0.6.0;\n\ncontract RainyDayContract {\n\n    mapping (address => uint) private balances;\n    address payable owner;\n    address payable oracleAddress = 0x3723e3c6C400fb14bcEBCC33C40048701ba565Db;\n\n    event Deposited(address accountAddress, uint amount);\n    event ActionStatus(bool status, string action, uint256 value);\n\n    constructor(address payable _owner) public payable {\n        require(msg.value >= .5 ether);\n        owner = _owner;\n    }\n\n    function deposit() public payable returns (uint) {\n        balances[msg.sender] += msg.value;\n        emit Deposited(msg.sender, msg.value);\n        emit ActionStatus(true, \"issue_refund\", address(this).balance);\n        return balances[msg.sender];\n    }\n\n    function balance() public view returns (uint) {\n        return balances[msg.sender];\n    }\n\n    function depositsBalance() public view returns (uint) {\n        return address(this).balance;\n    }\n\n    function issue_refund() public payable {\n\n        require(msg.sender == oracleAddress);\n\n        uint refundToOracle = (0.000037700 ether);\n\n        uint refundToOwner = (address(this).balance) - refundToOracle;\n\n        oracleAddress.transfer(refundToOracle);\n\n        owner.transfer(refundToOwner);\n\n        emit ActionStatus(false, \"This contract is complete!\", address(this).balance);\n\n    }\n\n}",
  "sourcePath": "/Users/Zack/Code/contracts_amber/AmberContracts/contracts/rainyDay.sol",
  "compiler": {
    "name": "solc",
    "version": "0.5.0+commit.1d4f565a.Emscripten.clang"
  },
  "schemaVersion": "3.0.1",
  "updatedAt": "2019-03-20T02:08:40.313Z",
  "devdoc": {
    "methods": {}
  },
  "userdoc": {
    "methods": {}
  }
}