{
  "contractName": "ServiceAgreement",
  "abi": [
    {
      "inputs": [
        {
          "name": "_depositor",
          "type": "address"
        },
        {
          "name": "_creator",
          "type": "address"
        },
        {
          "name": "_request_amount",
          "type": "uint256"
        }
      ],
      "payable": false,
      "stateMutability": "nonpayable",
      "type": "constructor"
    },
    {
      "anonymous": false,
      "inputs": [
        {
          "indexed": false,
          "name": "action_to",
          "type": "address"
        },
        {
          "indexed": false,
          "name": "value",
          "type": "uint256"
        },
        {
          "indexed": false,
          "name": "action",
          "type": "string"
        },
        {
          "indexed": false,
          "name": "active",
          "type": "bool"
        }
      ],
      "name": "next_action",
      "type": "event"
    },
    {
      "constant": false,
      "inputs": [],
      "name": "deposit_funds",
      "outputs": [],
      "payable": true,
      "stateMutability": "payable",
      "type": "function"
    },
    {
      "constant": false,
      "inputs": [],
      "name": "agree_upon_services_delivered",
      "outputs": [],
      "payable": true,
      "stateMutability": "payable",
      "type": "function"
    },
    {
      "constant": false,
      "inputs": [],
      "name": "withdraw_and_terminate_contract",
      "outputs": [],
      "payable": true,
      "stateMutability": "payable",
      "type": "function"
    },
    {
      "constant": false,
      "inputs": [],
      "name": "cancel",
      "outputs": [],
      "payable": true,
      "stateMutability": "payable",
      "type": "function"
    },
    {
      "constant": true,
      "inputs": [],
      "name": "get_balance_of_contract",
      "outputs": [
        {
          "name": "",
          "type": "uint256"
        }
      ],
      "payable": false,
      "stateMutability": "view",
      "type": "function"
    },
    {
      "constant": true,
      "inputs": [],
      "name": "see_contract_owner",
      "outputs": [
        {
          "name": "",
          "type": "address"
        }
      ],
      "payable": false,
      "stateMutability": "view",
      "type": "function"
    },
    {
      "constant": true,
      "inputs": [],
      "name": "see_the_depositor_of_the_contract",
      "outputs": [
        {
          "name": "",
          "type": "address"
        }
      ],
      "payable": false,
      "stateMutability": "view",
      "type": "function"
    }
  ],
  "bytecode": "0x608060405234801561001057600080fd5b506040516060806108958339810180604052606081101561003057600080fd5b81019080805190602001909291908051906020019092919080519060200190929190505050826000806101000a81548173ffffffffffffffffffffffffffffffffffffffff021916908373ffffffffffffffffffffffffffffffffffffffff16021790555081600160006101000a81548173ffffffffffffffffffffffffffffffffffffffff021916908373ffffffffffffffffffffffffffffffffffffffff160217905550806002819055506000600360006101000a81548160ff02191690831515021790555050505061078b8061010a6000396000f3fe608060405260043610610083576000357c0100000000000000000000000000000000000000000000000000000000900463ffffffff168063091de021146100885780631374f3021461009257806313ee6a73146100e95780633a4ee172146100f357806361fb38791461011e578063ca7d85e614610128578063ea8a1af01461017f575b600080fd5b610090610189565b005b34801561009e57600080fd5b506100a76103d1565b604051808273ffffffffffffffffffffffffffffffffffffffff1673ffffffffffffffffffffffffffffffffffffffff16815260200191505060405180910390f35b6100f16103fb565b005b3480156100ff57600080fd5b5061010861051f565b6040518082815260200191505060405180910390f35b61012661053e565b005b34801561013457600080fd5b5061013d6106a0565b604051808273ffffffffffffffffffffffffffffffffffffffff1673ffffffffffffffffffffffffffffffffffffffff16815260200191505060405180910390f35b6101876106c9565b005b600160009054906101000a900473ffffffffffffffffffffffffffffffffffffffff1673ffffffffffffffffffffffffffffffffffffffff163373ffffffffffffffffffffffffffffffffffffffff161415156101e557600080fd5b60011515600360009054906101000a900460ff16151514151561020757600080fd5b600160009054906101000a900473ffffffffffffffffffffffffffffffffffffffff1673ffffffffffffffffffffffffffffffffffffffff166108fc3073ffffffffffffffffffffffffffffffffffffffff16319081150290604051600060405180830381858888f19350505050158015610286573d6000803e3d6000fd5b507fc667a4edcf36fd2c0c74951ed642fc53fd0d1d3d45cd34d5a7a5ea3747313691600160009054906101000a900473ffffffffffffffffffffffffffffffffffffffff163073ffffffffffffffffffffffffffffffffffffffff16316000604051808473ffffffffffffffffffffffffffffffffffffffff1673ffffffffffffffffffffffffffffffffffffffff1681526020018381526020018060200183151515158152602001828103825260258152602001807f73657276696365735f72656e64657265645f616e645f636f6e74726163745f6381526020017f6c6f73656400000000000000000000000000000000000000000000000000000081525060400194505050505060405180910390a16000809054906101000a900473ffffffffffffffffffffffffffffffffffffffff1673ffffffffffffffffffffffffffffffffffffffff16ff5b6000600160009054906101000a900473ffffffffffffffffffffffffffffffffffffffff16905090565b6000809054906101000a900473ffffffffffffffffffffffffffffffffffffffff1673ffffffffffffffffffffffffffffffffffffffff163373ffffffffffffffffffffffffffffffffffffffff1614151561045657600080fd5b6002543414151561046657600080fd5b60003490507fc667a4edcf36fd2c0c74951ed642fc53fd0d1d3d45cd34d5a7a5ea374731369133826001604051808473ffffffffffffffffffffffffffffffffffffffff1673ffffffffffffffffffffffffffffffffffffffff16815260200183815260200180602001831515151581526020018281038252601d8152602001807f61677265655f75706f6e5f73657276696365735f64656c69766572656400000081525060200194505050505060405180910390a150565b60003073ffffffffffffffffffffffffffffffffffffffff1631905090565b6000809054906101000a900473ffffffffffffffffffffffffffffffffffffffff1673ffffffffffffffffffffffffffffffffffffffff163373ffffffffffffffffffffffffffffffffffffffff1614151561059957600080fd5b6001600360006101000a81548160ff0219169083151502179055507fc667a4edcf36fd2c0c74951ed642fc53fd0d1d3d45cd34d5a7a5ea3747313691600160009054906101000a900473ffffffffffffffffffffffffffffffffffffffff163073ffffffffffffffffffffffffffffffffffffffff16316001604051808473ffffffffffffffffffffffffffffffffffffffff1673ffffffffffffffffffffffffffffffffffffffff16815260200183815260200180602001831515151581526020018281038252601f8152602001807f77697468647261775f616e645f7465726d696e6174655f636f6e74726163740081525060200194505050505060405180910390a1565b60008060009054906101000a900473ffffffffffffffffffffffffffffffffffffffff16905090565b600160009054906101000a900473ffffffffffffffffffffffffffffffffffffffff1673ffffffffffffffffffffffffffffffffffffffff163373ffffffffffffffffffffffffffffffffffffffff1614151561072557600080fd5b6000809054906101000a900473ffffffffffffffffffffffffffffffffffffffff1673ffffffffffffffffffffffffffffffffffffffff16fffea165627a7a72305820856ae2b168f25779528cae1d4fafa4e7c7302e6c11e385a2bddd985d53a2892f0029",
  "source": "pragma solidity >=0.4.21 <0.6.0;\n\nimport 'openzeppelin-solidity/contracts/math/SafeMath.sol';\n\ncontract ServiceAgreement{\n    \n    using SafeMath for uint256;\n    \n    address payable depositor;\n    address payable creator;\n    uint256 requestAmount;\n    bool finished;\n    \n    event next_action(address action_to, uint256 value, string action, bool active);\n\n    constructor(address payable _depositor, address payable _creator, uint256 _request_amount )public{\n        depositor = _depositor;\n        creator = _creator;\n        requestAmount = _request_amount;\n        finished = false;\n    }\n\n    modifier isOwner(){\n        require(msg.sender == creator);\n        _;\n    }\n\n    modifier isDepositor(){\n        require(msg.sender == depositor);\n        _;\n    }\n\n    function deposit_funds() public payable isDepositor{\n        require(msg.value == requestAmount);\n        uint256 amount = msg.value;\n        emit next_action(msg.sender, amount, \"agree_upon_services_delivered\", true);\n    }\n    \n     function agree_upon_services_delivered() public payable isDepositor{\n\t\t\t  finished = true;\n        emit next_action(creator, address(this).balance, \"withdraw_and_terminate_contract\", true);\n    }\n\n    function withdraw_and_terminate_contract() public payable isOwner {\n        require(finished == true);\n        address(creator).transfer(address(this).balance);\n        emit next_action(creator, address(this).balance, \"services_rendered_and_contract_closed\", false);\n        selfdestruct(depositor);\n    }\n    \n    function cancel() public payable isOwner{\n        selfdestruct(depositor);\n    }\n\n    function get_balance_of_contract() public view returns(uint256){\n        return address(this).balance;\n    }\n\n    function see_contract_owner() public view returns(address){\n        return creator;\n    }\n\n    function see_the_depositor_of_the_contract() public view returns(address){\n        return depositor;\n    }\n}",
  "sourcePath": "/Users/Zack/Code/contracts_amber/AmberContracts/contracts/serviceAgreement.sol",
  "compiler": {
    "name": "solc",
    "version": "0.5.0+commit.1d4f565a.Emscripten.clang"
  },
  "schemaVersion": "3.0.1",
  "updatedAt": "2019-03-24T17:56:51.019Z",
  "devdoc": {
    "methods": {}
  },
  "userdoc": {
    "methods": {}
  }
}